{"abi":[{"type":"constructor","inputs":[],"stateMutability":"nonpayable"},{"type":"function","name":"authorizedAgents","inputs":[{"name":"","type":"address","internalType":"address"}],"outputs":[{"name":"","type":"bool","internalType":"bool"}],"stateMutability":"view"},{"type":"function","name":"eventCount","inputs":[],"outputs":[{"name":"","type":"uint256","internalType":"uint256"}],"stateMutability":"view"},{"type":"function","name":"getCumulativePnl","inputs":[],"outputs":[{"name":"","type":"int256","internalType":"int256"}],"stateMutability":"view"},{"type":"function","name":"getTradeEvent","inputs":[{"name":"id","type":"uint256","internalType":"uint256"}],"outputs":[{"name":"","type":"tuple","internalType":"struct TradingLedger.TradeEvent","components":[{"name":"id","type":"uint256","internalType":"uint256"},{"name":"localTradeId","type":"uint256","internalType":"uint256"},{"name":"phase","type":"string","internalType":"string"},{"name":"symbol","type":"string","internalType":"string"},{"name":"side","type":"string","internalType":"string"},{"name":"price","type":"int256","internalType":"int256"},{"name":"quantity","type":"int256","internalType":"int256"},{"name":"pnl","type":"int256","internalType":"int256"},{"name":"wallet","type":"address","internalType":"address"},{"name":"timestamp","type":"uint256","internalType":"uint256"},{"name":"agent","type":"address","internalType":"address"}]}],"stateMutability":"view"},{"type":"function","name":"getTradeEvents","inputs":[{"name":"offset","type":"uint256","internalType":"uint256"},{"name":"limit","type":"uint256","internalType":"uint256"}],"outputs":[{"name":"result","type":"tuple[]","internalType":"struct TradingLedger.TradeEvent[]","components":[{"name":"id","type":"uint256","internalType":"uint256"},{"name":"localTradeId","type":"uint256","internalType":"uint256"},{"name":"phase","type":"string","internalType":"string"},{"name":"symbol","type":"string","internalType":"string"},{"name":"side","type":"string","internalType":"string"},{"name":"price","type":"int256","internalType":"int256"},{"name":"quantity","type":"int256","internalType":"int256"},{"name":"pnl","type":"int256","internalType":"int256"},{"name":"wallet","type":"address","internalType":"address"},{"name":"timestamp","type":"uint256","internalType":"uint256"},{"name":"agent","type":"address","internalType":"address"}]}],"stateMutability":"view"},{"type":"function","name":"owner","inputs":[],"outputs":[{"name":"","type":"address","internalType":"address"}],"stateMutability":"view"},{"type":"function","name":"recordTradeEvent","inputs":[{"name":"localTradeId","type":"uint256","internalType":"uint256"},{"name":"phase","type":"string","internalType":"string"},{"name":"symbol","type":"string","internalType":"string"},{"name":"side","type":"string","internalType":"string"},{"name":"price","type":"int256","internalType":"int256"},{"name":"quantity","type":"int256","internalType":"int256"},{"name":"pnl","type":"int256","internalType":"int256"},{"name":"wallet","type":"address","internalType":"address"}],"outputs":[{"name":"id","type":"uint256","internalType":"uint256"}],"stateMutability":"nonpayable"},{"type":"function","name":"setAgent","inputs":[{"name":"agent","type":"address","internalType":"address"},{"name":"authorized","type":"bool","internalType":"bool"}],"outputs":[],"stateMutability":"nonpayable"},{"type":"function","name":"totalPnl","inputs":[],"outputs":[{"name":"","type":"int256","internalType":"int256"}],"stateMutability":"view"},{"type":"function","name":"transferOwnership","inputs":[{"name":"newOwner","type":"address","internalType":"address"}],"outputs":[],"stateMutability":"nonpayable"},{"type":"event","name":"AgentAuthorized","inputs":[{"name":"agent","type":"address","indexed":true,"internalType":"address"},{"name":"authorized","type":"bool","indexed":false,"internalType":"bool"}],"anonymous":false},{"type":"event","name":"OwnershipTransferred","inputs":[{"name":"previousOwner","type":"address","indexed":true,"internalType":"address"},{"name":"newOwner","type":"address","indexed":true,"internalType":"address"}],"anonymous":false},{"type":"event","name":"TradeLifecycleRecorded","inputs":[{"name":"id","type":"uint256","indexed":true,"internalType":"uint256"},{"name":"localTradeId","type":"uint256","indexed":true,"internalType":"uint256"},{"name":"phase","type":"string","indexed":false,"internalType":"string"},{"name":"symbol","type":"string","indexed":false,"internalType":"string"},{"name":"side","type":"string","indexed":false,"internalType":"string"},{"name":"price","type":"int256","indexed":false,"internalType":"int256"},{"name":"quantity","type":"int256","indexed":false,"internalType":"int256"},{"name":"pnl","type":"int256","indexed":false,"internalType":"int256"},{"name":"wallet","type":"address","indexed":true,"internalType":"address"},{"name":"agent","type":"address","indexed":false,"internalType":"address"}],"anonymous":false}],"bytecode":{"object":"0x608060405234801561000f575f80fd5b505f80546001600160a01b03191633908117825580825260016020818152604093849020805460ff191683179055925190815290917f1b06338d0edf2ba8ccee31e466ab37b376418209af6a85c55c51e89a51e33bde910160405180910390a26113b38061007c5f395ff3fe608060405234801561000f575f80fd5b506004361061009b575f3560e01c8063e57e688811610063578063e57e68881461011d578063ea7f7e0514610130578063efd7606514610150578063f0588acc14610182578063f2fde38b1461018b575f80fd5b806371be2e4a1461009f57806380b6d5ef146100b65780638da5cb5b146100d657806397d8c67614610100578063d358eea414610115575b5f80fd5b6002545b6040519081526020015b60405180910390f35b6100c96100c4366004610dd2565b61019e565b6040516100ad9190610ef7565b5f546100e8906001600160a01b031681565b6040516001600160a01b0390911681526020016100ad565b61011361010e366004610f72565b610502565b005b6003546100a3565b6100a361012b366004610ff0565b6105b9565b61014361013e3660046110bb565b6109bd565b6040516100ad91906110d2565b61017261015e3660046110eb565b60016020525f908152604090205460ff1681565b60405190151581526020016100ad565b6100a360035481565b6101136101993660046110eb565b610c6b565b60025460609080841015806101b1575082155b156101ef57604080515f80825260208201909252906101e6565b6101d3610d6e565b8152602001906001900390816101cb5790505b509150506104fc565b82816101fb828761112c565b111561020e5761020b858361113f565b90505b8067ffffffffffffffff81111561022757610227611104565b60405190808252806020026020018201604052801561026057816020015b61024d610d6e565b8152602001906001900390816102455790505b5092505f5b818110156104f8576002818761027c60018761113f565b610286919061113f565b610290919061113f565b815481106102a0576102a0611152565b905f5260205f2090600b0201604051806101600160405290815f8201548152602001600182015481526020016002820180546102db90611166565b80601f016020809104026020016040519081016040528092919081815260200182805461030790611166565b80156103525780601f1061032957610100808354040283529160200191610352565b820191905f5260205f20905b81548152906001019060200180831161033557829003601f168201915b5050505050815260200160038201805461036b90611166565b80601f016020809104026020016040519081016040528092919081815260200182805461039790611166565b80156103e25780601f106103b9576101008083540402835291602001916103e2565b820191905f5260205f20905b8154815290600101906020018083116103c557829003601f168201915b505050505081526020016004820180546103fb90611166565b80601f016020809104026020016040519081016040528092919081815260200182805461042790611166565b80156104725780601f1061044957610100808354040283529160200191610472565b820191905f5260205f20905b81548152906001019060200180831161045557829003601f168201915b505050918352505060058201546020820152600682015460408201526007820154606082015260088201546001600160a01b039081166080830152600983015460a0830152600a9092015490911660c09091015284518590839081106104da576104da611152565b602002602001018190525080806104f09061119e565b915050610265565b5050505b92915050565b5f546001600160a01b0316331461055b5760405162461bcd60e51b81526020600482015260186024820152772a3930b234b733a632b233b2b91d103737ba1037bbb732b960411b60448201526064015b60405180910390fd5b6001600160a01b0382165f81815260016020908152604091829020805460ff191685151590811790915591519182527f1b06338d0edf2ba8ccee31e466ab37b376418209af6a85c55c51e89a51e33bde910160405180910390a25050565b335f9081526001602052604081205460ff166106235760405162461bcd60e51b815260206004820152602360248201527f54726164696e674c65646765723a206e6f7420617574686f72697a6564206167604482015262195b9d60ea1b6064820152608401610552565b5f8c116106815760405162461bcd60e51b815260206004820152602660248201527f54726164696e674c65646765723a206c6f63616c2074726164652069642072656044820152651c5d5a5c995960d21b6064820152608401610552565b876106ce5760405162461bcd60e51b815260206004820152601e60248201527f54726164696e674c65646765723a2073796d626f6c20726571756972656400006044820152606401610552565b8561071b5760405162461bcd60e51b815260206004820152601c60248201527f54726164696e674c65646765723a2073696465207265717569726564000000006044820152606401610552565b896107685760405162461bcd60e51b815260206004820152601d60248201527f54726164696e674c65646765723a2070686173652072657175697265640000006044820152606401610552565b60025461077690600161112c565b905060026040518061016001604052808381526020018e81526020018d8d8080601f0160208091040260200160405190810160405280939291908181526020018383808284375f92019190915250505090825250604080516020601f8e018190048102820181019092528c815291810191908d908d90819084018382808284375f92019190915250505090825250604080516020601f8c018190048102820181019092528a815291810191908b908b90819084018382808284375f92018290525093855250505060208083018a905260408084018a9052606084018990526001600160a01b03881660808501524260a08501523360c090940193909352845460018181018755958352918190208451600b909302019182558301519381019390935581015190919060028201906108ad9082611204565b50606082015160038201906108c29082611204565b50608082015160048201906108d79082611204565b5060a0820151600582015560c0820151600682015560e082015160078201556101008201516008820180546001600160a01b03199081166001600160a01b0393841617909155610120840151600984015561014090930151600a90920180549093169116179055600380548491905f906109529084906112c0565b92505081905550816001600160a01b03168c827f5b92d7ae3495a39f3e82de1637020e00e48f70f9205bb235f8539eda426344c78e8e8e8e8e8e8e8e8e336040516109a69a9998979695949392919061130f565b60405180910390a49b9a5050505050505050505050565b6109c5610d6e565b5f821180156109d657506002548211155b610a225760405162461bcd60e51b815260206004820152601e60248201527f54726164696e674c65646765723a206576656e74206e6f7420666f756e6400006044820152606401610552565b6002610a2f60018461113f565b81548110610a3f57610a3f611152565b905f5260205f2090600b0201604051806101600160405290815f820154815260200160018201548152602001600282018054610a7a90611166565b80601f0160208091040260200160405190810160405280929190818152602001828054610aa690611166565b8015610af15780601f10610ac857610100808354040283529160200191610af1565b820191905f5260205f20905b815481529060010190602001808311610ad457829003601f168201915b50505050508152602001600382018054610b0a90611166565b80601f0160208091040260200160405190810160405280929190818152602001828054610b3690611166565b8015610b815780601f10610b5857610100808354040283529160200191610b81565b820191905f5260205f20905b815481529060010190602001808311610b6457829003601f168201915b50505050508152602001600482018054610b9a90611166565b80601f0160208091040260200160405190810160405280929190818152602001828054610bc690611166565b8015610c115780601f10610be857610100808354040283529160200191610c11565b820191905f5260205f20905b815481529060010190602001808311610bf457829003601f168201915b505050918352505060058201546020820152600682015460408201526007820154606082015260088201546001600160a01b039081166080830152600983015460a0830152600a9092015490911660c09091015292915050565b5f546001600160a01b03163314610cbf5760405162461bcd60e51b81526020600482015260186024820152772a3930b234b733a632b233b2b91d103737ba1037bbb732b960411b6044820152606401610552565b6001600160a01b038116610d155760405162461bcd60e51b815260206004820152601b60248201527f54726164696e674c65646765723a207a65726f206164647265737300000000006044820152606401610552565b5f80546040516001600160a01b03808516939216917f8be0079c531659141344cd1fd0a4f28419497f9722a3daafe3b4186f6b6457e091a35f80546001600160a01b0319166001600160a01b0392909216919091179055565b6040518061016001604052805f81526020015f81526020016060815260200160608152602001606081526020015f81526020015f81526020015f81526020015f6001600160a01b031681526020015f81526020015f6001600160a01b031681525090565b5f8060408385031215610de3575f80fd5b50508035926020909101359150565b5f81518084525f5b81811015610e1657602081850181015186830182015201610dfa565b505f602082860101526020601f19601f83011685010191505092915050565b5f61016082518452602083015160208501526040830151816040860152610e5e82860182610df2565b91505060608301518482036060860152610e788282610df2565b91505060808301518482036080860152610e928282610df2565b91505060a083015160a085015260c083015160c085015260e083015160e085015261010080840151610ece828701826001600160a01b03169052565b50506101208381015190850152610140928301516001600160a01b031692909301919091525090565b5f602080830181845280855180835260408601915060408160051b87010192508387015f5b82811015610f4a57603f19888603018452610f38858351610e35565b94509285019290850190600101610f1c565b5092979650505050505050565b80356001600160a01b0381168114610f6d575f80fd5b919050565b5f8060408385031215610f83575f80fd5b610f8c83610f57565b915060208301358015158114610fa0575f80fd5b809150509250929050565b5f8083601f840112610fbb575f80fd5b50813567ffffffffffffffff811115610fd2575f80fd5b602083019150836020828501011115610fe9575f80fd5b9250929050565b5f805f805f805f805f805f6101008c8e03121561100b575f80fd5b8b359a5067ffffffffffffffff8060208e01351115611028575f80fd5b6110388e60208f01358f01610fab565b909b50995060408d013581101561104d575f80fd5b61105d8e60408f01358f01610fab565b909950975060608d0135811015611072575f80fd5b506110838d60608e01358e01610fab565b909650945060808c0135935060a08c0135925060c08c013591506110a960e08d01610f57565b90509295989b509295989b9093969950565b5f602082840312156110cb575f80fd5b5035919050565b602081525f6110e46020830184610e35565b9392505050565b5f602082840312156110fb575f80fd5b6110e482610f57565b634e487b7160e01b5f52604160045260245ffd5b634e487b7160e01b5f52601160045260245ffd5b808201808211156104fc576104fc611118565b818103818111156104fc576104fc611118565b634e487b7160e01b5f52603260045260245ffd5b600181811c9082168061117a57607f821691505b60208210810361119857634e487b7160e01b5f52602260045260245ffd5b50919050565b5f600182016111af576111af611118565b5060010190565b601f8211156111ff575f81815260208120601f850160051c810160208610156111dc5750805b601f850160051c820191505b818110156111fb578281556001016111e8565b5050505b505050565b815167ffffffffffffffff81111561121e5761121e611104565b6112328161122c8454611166565b846111b6565b602080601f831160018114611265575f841561124e5750858301515b5f19600386901b1c1916600185901b1785556111fb565b5f85815260208120601f198616915b8281101561129357888601518255948401946001909101908401611274565b50858210156112b057878501515f19600388901b60f8161c191681555b5050505050600190811b01905550565b8082018281125f8312801582168215821617156112df576112df611118565b505092915050565b81835281816020850137505f828201602090810191909152601f909101601f19169091010190565b60e081525f61132260e083018c8e6112e7565b8281036020840152611335818b8d6112e7565b9050828103604084015261134a81898b6112e7565b60608401979097525050608081019390935260a08301919091526001600160a01b031660c090910152969550505050505056fea2646970667358221220dc3bedfd4e3388180796a107d20386ce5d33a86acca662bda920672ef5e353bd64736f6c63430008140033","linkReferences":{}},"methodIdentifiers":{"authorizedAgents(address)":"efd76065","eventCount()":"71be2e4a","getCumulativePnl()":"d358eea4","getTradeEvent(uint256)":"ea7f7e05","getTradeEvents(uint256,uint256)":"80b6d5ef","owner()":"8da5cb5b","recordTradeEvent(uint256,string,string,string,int256,int256,int256,address)":"e57e6888","setAgent(address,bool)":"97d8c676","totalPnl()":"f0588acc","transferOwnership(address)":"f2fde38b"},"id":19}