{"abi":[{"type":"constructor","inputs":[],"stateMutability":"nonpayable"},{"type":"function","name":"authorizedAgents","inputs":[{"name":"","type":"address","internalType":"address"}],"outputs":[{"name":"","type":"bool","internalType":"bool"}],"stateMutability":"view"},{"type":"function","name":"getCumulativePnl","inputs":[],"outputs":[{"name":"","type":"int256","internalType":"int256"}],"stateMutability":"view"},{"type":"function","name":"getTrade","inputs":[{"name":"id","type":"uint256","internalType":"uint256"}],"outputs":[{"name":"","type":"tuple","internalType":"struct TradingLedger.Trade","components":[{"name":"id","type":"uint256","internalType":"uint256"},{"name":"symbol","type":"string","internalType":"string"},{"name":"side","type":"string","internalType":"string"},{"name":"price","type":"int256","internalType":"int256"},{"name":"quantity","type":"int256","internalType":"int256"},{"name":"pnl","type":"int256","internalType":"int256"},{"name":"timestamp","type":"uint256","internalType":"uint256"},{"name":"agent","type":"address","internalType":"address"}]}],"stateMutability":"view"},{"type":"function","name":"getTrades","inputs":[{"name":"offset","type":"uint256","internalType":"uint256"},{"name":"limit","type":"uint256","internalType":"uint256"}],"outputs":[{"name":"result","type":"tuple[]","internalType":"struct TradingLedger.Trade[]","components":[{"name":"id","type":"uint256","internalType":"uint256"},{"name":"symbol","type":"string","internalType":"string"},{"name":"side","type":"string","internalType":"string"},{"name":"price","type":"int256","internalType":"int256"},{"name":"quantity","type":"int256","internalType":"int256"},{"name":"pnl","type":"int256","internalType":"int256"},{"name":"timestamp","type":"uint256","internalType":"uint256"},{"name":"agent","type":"address","internalType":"address"}]}],"stateMutability":"view"},{"type":"function","name":"owner","inputs":[],"outputs":[{"name":"","type":"address","internalType":"address"}],"stateMutability":"view"},{"type":"function","name":"recordTrade","inputs":[{"name":"symbol","type":"string","internalType":"string"},{"name":"side","type":"string","internalType":"string"},{"name":"price","type":"int256","internalType":"int256"},{"name":"quantity","type":"int256","internalType":"int256"},{"name":"pnl","type":"int256","internalType":"int256"}],"outputs":[{"name":"id","type":"uint256","internalType":"uint256"}],"stateMutability":"nonpayable"},{"type":"function","name":"setAgent","inputs":[{"name":"agent","type":"address","internalType":"address"},{"name":"authorized","type":"bool","internalType":"bool"}],"outputs":[],"stateMutability":"nonpayable"},{"type":"function","name":"totalPnl","inputs":[],"outputs":[{"name":"","type":"int256","internalType":"int256"}],"stateMutability":"view"},{"type":"function","name":"tradeCount","inputs":[],"outputs":[{"name":"","type":"uint256","internalType":"uint256"}],"stateMutability":"view"},{"type":"function","name":"transferOwnership","inputs":[{"name":"newOwner","type":"address","internalType":"address"}],"outputs":[],"stateMutability":"nonpayable"},{"type":"event","name":"AgentAuthorized","inputs":[{"name":"agent","type":"address","indexed":true,"internalType":"address"},{"name":"authorized","type":"bool","indexed":false,"internalType":"bool"}],"anonymous":false},{"type":"event","name":"OwnershipTransferred","inputs":[{"name":"previousOwner","type":"address","indexed":true,"internalType":"address"},{"name":"newOwner","type":"address","indexed":true,"internalType":"address"}],"anonymous":false},{"type":"event","name":"TradeRecorded","inputs":[{"name":"id","type":"uint256","indexed":true,"internalType":"uint256"},{"name":"symbol","type":"string","indexed":false,"internalType":"string"},{"name":"side","type":"string","indexed":false,"internalType":"string"},{"name":"price","type":"int256","indexed":false,"internalType":"int256"},{"name":"quantity","type":"int256","indexed":false,"internalType":"int256"},{"name":"pnl","type":"int256","indexed":false,"internalType":"int256"},{"name":"agent","type":"address","indexed":true,"internalType":"address"}],"anonymous":false}],"bytecode":{"object":"0x608060405234801561000f575f80fd5b505f80546001600160a01b03191633908117825580825260016020818152604093849020805460ff191683179055925190815290917f1b06338d0edf2ba8ccee31e466ab37b376418209af6a85c55c51e89a51e33bde910160405180910390a2610fbb8061007c5f395ff3fe608060405234801561000f575f80fd5b506004361061009b575f3560e01c8063efd7606511610063578063efd7606514610121578063f0588acc14610153578063f13485f51461015c578063f2fde38b1461016f578063fa6e9bf014610182575f80fd5b80632db25e051461009f5780638da5cb5b146100c857806397d8c676146100f2578063bd55022a14610107578063d358eea414610119575b5f80fd5b6100b26100ad366004610a8f565b6101a2565b6040516100bf9190610b69565b60405180910390f35b5f546100da906001600160a01b031681565b6040516001600160a01b0390911681526020016100bf565b610105610100366004610b9d565b6103ac565b005b6002545b6040519081526020016100bf565b60035461010b565b61014361012f366004610bd6565b60016020525f908152604090205460ff1681565b60405190151581526020016100bf565b61010b60035481565b61010b61016a366004610c34565b61045e565b61010561017d366004610bd6565b610689565b610195610190366004610cb4565b61078c565b6040516100bf9190610cd4565b6101aa610a47565b5f821180156101bb57506002548211155b61020c5760405162461bcd60e51b815260206004820152601e60248201527f54726164696e674c65646765723a207472616465206e6f7420666f756e64000060448201526064015b60405180910390fd5b6002610219600184610d48565b8154811061022957610229610d5b565b905f5260205f209060080201604051806101000160405290815f820154815260200160018201805461025a90610d6f565b80601f016020809104026020016040519081016040528092919081815260200182805461028690610d6f565b80156102d15780601f106102a8576101008083540402835291602001916102d1565b820191905f5260205f20905b8154815290600101906020018083116102b457829003601f168201915b505050505081526020016002820180546102ea90610d6f565b80601f016020809104026020016040519081016040528092919081815260200182805461031690610d6f565b80156103615780601f1061033857610100808354040283529160200191610361565b820191905f5260205f20905b81548152906001019060200180831161034457829003601f168201915b5050509183525050600382015460208201526004820154604082015260058201546060820152600682015460808201526007909101546001600160a01b031660a09091015292915050565b5f546001600160a01b031633146104005760405162461bcd60e51b81526020600482015260186024820152772a3930b234b733a632b233b2b91d103737ba1037bbb732b960411b6044820152606401610203565b6001600160a01b0382165f81815260016020908152604091829020805460ff191685151590811790915591519182527f1b06338d0edf2ba8ccee31e466ab37b376418209af6a85c55c51e89a51e33bde910160405180910390a25050565b335f9081526001602052604081205460ff166104c85760405162461bcd60e51b815260206004820152602360248201527f54726164696e674c65646765723a206e6f7420617574686f72697a6564206167604482015262195b9d60ea1b6064820152608401610203565b6002546104d6906001610da7565b905060026040518061010001604052808381526020018a8a8080601f0160208091040260200160405190810160405280939291908181526020018383808284375f92019190915250505090825250604080516020601f8b0181900481028201810190925289815291810191908a908a90819084018382808284375f920182905250938552505050602080830189905260408301889052606083018790524260808401523360a0909301929092528354600181810186559482529082902083516008909202019081559082015191929091908201906105b49082610e1c565b50604082015160028201906105c99082610e1c565b50606082015181600301556080820151816004015560a0820151816005015560c0820151816006015560e0820151816007015f6101000a8154816001600160a01b0302191690836001600160a01b0316021790555050508160035f8282546106319190610ed8565b9091555050604051339082907f39a31bd0e0fe10d5e158c0093bc983bde710248da6e787d6d1c83afa067323f990610676908c908c908c908c908c908c908c90610f27565b60405180910390a3979650505050505050565b5f546001600160a01b031633146106dd5760405162461bcd60e51b81526020600482015260186024820152772a3930b234b733a632b233b2b91d103737ba1037bbb732b960411b6044820152606401610203565b6001600160a01b0381166107335760405162461bcd60e51b815260206004820152601b60248201527f54726164696e674c65646765723a207a65726f206164647265737300000000006044820152606401610203565b5f80546040516001600160a01b03808516939216917f8be0079c531659141344cd1fd0a4f28419497f9722a3daafe3b4186f6b6457e091a35f80546001600160a01b0319166001600160a01b0392909216919091179055565b600254606090808410158061079f575082155b156107dd57604080515f80825260208201909252906107d4565b6107c1610a47565b8152602001906001900390816107b95790505b50915050610a41565b82816107e98287610da7565b11156107fc576107f98583610d48565b90505b8067ffffffffffffffff81111561081557610815610dba565b60405190808252806020026020018201604052801561084e57816020015b61083b610a47565b8152602001906001900390816108335790505b5092505f5b81811015610a3d576002818761086a600187610d48565b6108749190610d48565b61087e9190610d48565b8154811061088e5761088e610d5b565b905f5260205f209060080201604051806101000160405290815f82015481526020016001820180546108bf90610d6f565b80601f01602080910402602001604051908101604052809291908181526020018280546108eb90610d6f565b80156109365780601f1061090d57610100808354040283529160200191610936565b820191905f5260205f20905b81548152906001019060200180831161091957829003601f168201915b5050505050815260200160028201805461094f90610d6f565b80601f016020809104026020016040519081016040528092919081815260200182805461097b90610d6f565b80156109c65780601f1061099d576101008083540402835291602001916109c6565b820191905f5260205f20905b8154815290600101906020018083116109a957829003601f168201915b5050509183525050600382015460208201526004820154604082015260058201546060820152600682015460808201526007909101546001600160a01b031660a0909101528451859083908110610a1f57610a1f610d5b565b60200260200101819052508080610a3590610f6d565b915050610853565b5050505b92915050565b6040518061010001604052805f815260200160608152602001606081526020015f81526020015f81526020015f81526020015f81526020015f6001600160a01b031681525090565b5f60208284031215610a9f575f80fd5b5035919050565b5f81518084525f5b81811015610aca57602081850181015186830182015201610aae565b505f602082860101526020601f19601f83011685010191505092915050565b5f610100825184526020830151816020860152610b0882860182610aa6565b91505060408301518482036040860152610b228282610aa6565b915050606083015160608501526080830151608085015260a083015160a085015260c083015160c085015260018060a01b0360e08401511660e08501528091505092915050565b602081525f610b7b6020830184610ae9565b9392505050565b80356001600160a01b0381168114610b98575f80fd5b919050565b5f8060408385031215610bae575f80fd5b610bb783610b82565b915060208301358015158114610bcb575f80fd5b809150509250929050565b5f60208284031215610be6575f80fd5b610b7b82610b82565b5f8083601f840112610bff575f80fd5b50813567ffffffffffffffff811115610c16575f80fd5b602083019150836020828501011115610c2d575f80fd5b9250929050565b5f805f805f805f60a0888a031215610c4a575f80fd5b873567ffffffffffffffff80821115610c61575f80fd5b610c6d8b838c01610bef565b909950975060208a0135915080821115610c85575f80fd5b50610c928a828b01610bef565b989b979a50986040810135976060820135975060809091013595509350505050565b5f8060408385031215610cc5575f80fd5b50508035926020909101359150565b5f602080830181845280855180835260408601915060408160051b87010192508387015f5b82811015610d2757603f19888603018452610d15858351610ae9565b94509285019290850190600101610cf9565b5092979650505050505050565b634e487b7160e01b5f52601160045260245ffd5b81810381811115610a4157610a41610d34565b634e487b7160e01b5f52603260045260245ffd5b600181811c90821680610d8357607f821691505b602082108103610da157634e487b7160e01b5f52602260045260245ffd5b50919050565b80820180821115610a4157610a41610d34565b634e487b7160e01b5f52604160045260245ffd5b601f821115610e17575f81815260208120601f850160051c81016020861015610df45750805b601f850160051c820191505b81811015610e1357828155600101610e00565b5050505b505050565b815167ffffffffffffffff811115610e3657610e36610dba565b610e4a81610e448454610d6f565b84610dce565b602080601f831160018114610e7d575f8415610e665750858301515b5f19600386901b1c1916600185901b178555610e13565b5f85815260208120601f198616915b82811015610eab57888601518255948401946001909101908401610e8c565b5085821015610ec857878501515f19600388901b60f8161c191681555b5050505050600190811b01905550565b8082018281125f831280158216821582161715610ef757610ef7610d34565b505092915050565b81835281816020850137505f828201602090810191909152601f909101601f19169091010190565b60a081525f610f3a60a08301898b610eff565b8281036020840152610f4d81888a610eff565b604084019690965250506060810192909252608090910152949350505050565b5f60018201610f7e57610f7e610d34565b506001019056fea26469706673582212207cb65675799a8c887dc9c06372e2a429cf4f78ba150da3e41c4df75bce303c1064736f6c63430008140033","linkReferences":{}},"methodIdentifiers":{"authorizedAgents(address)":"efd76065","getCumulativePnl()":"d358eea4","getTrade(uint256)":"2db25e05","getTrades(uint256,uint256)":"fa6e9bf0","owner()":"8da5cb5b","recordTrade(string,string,int256,int256,int256)":"f13485f5","setAgent(address,bool)":"97d8c676","totalPnl()":"f0588acc","tradeCount()":"bd55022a","transferOwnership(address)":"f2fde38b"},"id":19}